{
  "contractName": "BlindCommitments",
  "abi": [
    {
      "constant": true,
      "inputs": [],
      "name": "reward",
      "outputs": [
        {
          "name": "",
          "type": "uint256"
        }
      ],
      "payable": false,
      "stateMutability": "view",
      "type": "function"
    },
    {
      "constant": true,
      "inputs": [
        {
          "name": "nonce",
          "type": "uint8"
        }
      ],
      "name": "mine",
      "outputs": [
        {
          "name": "",
          "type": "bytes8"
        }
      ],
      "payable": false,
      "stateMutability": "view",
      "type": "function"
    },
    {
      "constant": false,
      "inputs": [],
      "name": "skipBlock",
      "outputs": [
        {
          "name": "",
          "type": "uint256"
        }
      ],
      "payable": false,
      "stateMutability": "nonpayable",
      "type": "function"
    },
    {
      "constant": false,
      "inputs": [
        {
          "name": "nonce",
          "type": "uint8"
        }
      ],
      "name": "claimReward",
      "outputs": [],
      "payable": false,
      "stateMutability": "nonpayable",
      "type": "function"
    },
    {
      "constant": false,
      "inputs": [
        {
          "name": "difficulty",
          "type": "bytes8"
        }
      ],
      "name": "setDiff",
      "outputs": [],
      "payable": false,
      "stateMutability": "nonpayable",
      "type": "function"
    },
    {
      "constant": true,
      "inputs": [],
      "name": "owner",
      "outputs": [
        {
          "name": "",
          "type": "address"
        }
      ],
      "payable": false,
      "stateMutability": "view",
      "type": "function"
    },
    {
      "constant": false,
      "inputs": [
        {
          "name": "_c",
          "type": "bytes8"
        }
      ],
      "name": "blindCommitment",
      "outputs": [],
      "payable": false,
      "stateMutability": "nonpayable",
      "type": "function"
    },
    {
      "constant": true,
      "inputs": [],
      "name": "difficultyTarget",
      "outputs": [
        {
          "name": "",
          "type": "bytes8"
        }
      ],
      "payable": false,
      "stateMutability": "view",
      "type": "function"
    },
    {
      "inputs": [
        {
          "name": "initialReward",
          "type": "uint256"
        },
        {
          "name": "difficulty",
          "type": "bytes8"
        }
      ],
      "payable": false,
      "stateMutability": "nonpayable",
      "type": "constructor"
    }
  ],
  "bytecode": "0x606060405260048055341561001357600080fd5b6040516040806108c58339810160405280805190602001909190805190602001909190505033600260006101000a81548173ffffffffffffffffffffffffffffffffffffffff021916908373ffffffffffffffffffffffffffffffffffffffff16021790555081600181905550806000806101000a81548167ffffffffffffffff021916908378010000000000000000000000000000000000000000000000009004021790555050506107fa806100cb6000396000f30060606040526004361061008e576000357c0100000000000000000000000000000000000000000000000000000000900463ffffffff168063228cb7331461009357806347a83862146100bc578063660982d91461012c578063689f1623146101555780638b7115861461017b5780638da5cb5b146101b9578063c11af9441461020e578063d99832831461024c575b600080fd5b341561009e57600080fd5b6100a66102ab565b6040518082815260200191505060405180910390f35b34156100c757600080fd5b6100e0600480803560ff169060200190919050506102b1565b604051808277ffffffffffffffffffffffffffffffffffffffffffffffff191677ffffffffffffffffffffffffffffffffffffffffffffffff1916815260200191505060405180910390f35b341561013757600080fd5b61013f610420565b6040518082815260200191505060405180910390f35b341561016057600080fd5b610179600480803560ff16906020019091905050610425565b005b341561018657600080fd5b6101b7600480803577ffffffffffffffffffffffffffffffffffffffffffffffff1916906020019091905050610694565b005b34156101c457600080fd5b6101cc61072d565b604051808273ffffffffffffffffffffffffffffffffffffffff1673ffffffffffffffffffffffffffffffffffffffff16815260200191505060405180910390f35b341561021957600080fd5b61024a600480803577ffffffffffffffffffffffffffffffffffffffffffffffff1916906020019091905050610753565b005b341561025757600080fd5b61025f6107a4565b604051808277ffffffffffffffffffffffffffffffffffffffffffffffff191677ffffffffffffffffffffffffffffffffffffffffffffffff1916815260200191505060405180910390f35b60015481565b60008060008360ff16780100000000000000000000000000000000000000000000000002604051808277ffffffffffffffffffffffffffffffffffffffffffffffff191677ffffffffffffffffffffffffffffffffffffffffffffffff19168152600801915050604051809103902091506000809054906101000a900478010000000000000000000000000000000000000000000000000277ffffffffffffffffffffffffffffffffffffffffffffffff19168277ffffffffffffffffffffffffffffffffffffffffffffffff19161015151561038d57600080fd5b337801000000000000000000000000000000000000000000000000028460ff1678010000000000000000000000000000000000000000000000000218604051808277ffffffffffffffffffffffffffffffffffffffffffffffff191677ffffffffffffffffffffffffffffffffffffffffffffffff19168152600801915050604051809103902090508092505050919050565b600090565b6000808260ff16780100000000000000000000000000000000000000000000000002604051808277ffffffffffffffffffffffffffffffffffffffffffffffff191677ffffffffffffffffffffffffffffffffffffffffffffffff19168152600801915050604051809103902091506000809054906101000a900478010000000000000000000000000000000000000000000000000277ffffffffffffffffffffffffffffffffffffffffffffffff19168277ffffffffffffffffffffffffffffffffffffffffffffffff1916101515156104ff57600080fd5b337801000000000000000000000000000000000000000000000000028360ff1678010000000000000000000000000000000000000000000000000218604051808277ffffffffffffffffffffffffffffffffffffffffffffffff191677ffffffffffffffffffffffffffffffffffffffffffffffff19168152600801915050604051809103902090506000600360008377ffffffffffffffffffffffffffffffffffffffffffffffff191677ffffffffffffffffffffffffffffffffffffffffffffffff191681526020019081526020016000205411801561062d575043600454600360008477ffffffffffffffffffffffffffffffffffffffffffffffff191677ffffffffffffffffffffffffffffffffffffffffffffffff191681526020019081526020016000205401105b151561063857600080fd5b3373ffffffffffffffffffffffffffffffffffffffff166108fc3073ffffffffffffffffffffffffffffffffffffffff16319081150290604051600060405180830381858888f19350505050151561068f57600080fd5b505050565b3373ffffffffffffffffffffffffffffffffffffffff16600260009054906101000a900473ffffffffffffffffffffffffffffffffffffffff1673ffffffffffffffffffffffffffffffffffffffff161415156106f057600080fd5b806000806101000a81548167ffffffffffffffff021916908378010000000000000000000000000000000000000000000000009004021790555050565b600260009054906101000a900473ffffffffffffffffffffffffffffffffffffffff1681565b43600360008377ffffffffffffffffffffffffffffffffffffffffffffffff191677ffffffffffffffffffffffffffffffffffffffffffffffff191681526020019081526020016000208190555050565b6000809054906101000a9004780100000000000000000000000000000000000000000000000002815600a165627a7a7230582087aa8816682844dda3b78d44447688d0820aff075f63f1b5ef14b5e7351cea6a0029",
  "source": "pragma solidity ^0.4.4;\n\ncontract BlindCommitments {\n\n  //Storage Variables\n  bytes8 public difficultyTarget;\n  uint256 public reward;\n  address public owner;\n  mapping (bytes8 => uint) commits;\n  uint blockWait = 4;\n\n  // constructor\n  function BlindCommitments(uint256 initialReward, bytes8 difficulty) public {\n    owner = msg.sender;\n    reward = initialReward;\n    difficultyTarget = difficulty;\n  }\n\n  // change difficulty\n  function setDiff(bytes8 difficulty) external {\n    require(owner == msg.sender);\n    difficultyTarget = difficulty;\n  }\n\n  // mine for valid nonce\n  function mine(uint8 nonce) external view returns (bytes8) {\n    // hash nonce\n    bytes8 res = bytes8(keccak256(bytes8(nonce)));\n\n    // difficulty target check\n    require(res >= difficultyTarget);\n\n    // returns the blind commitment\n    bytes8 c = bytes8(keccak256(bytes8(nonce) ^ bytes8(msg.sender)));\n    \n    return c;\n  }\n\n  //submit blind commitment\n  function blindCommitment(bytes8 _c) external {\n    commits[_c] = block.number;\n  }\n\n  // claim reward after X blocks\n  function claimReward(uint8 nonce) public {\n    // nonce must be valid for difficulty target\n    bytes8 res = bytes8(keccak256(bytes8(nonce)));\n    require(res >= difficultyTarget);\n\n    // the nonce must have been sent blockWait blocks ago\n    bytes8 c = bytes8(keccak256(bytes8(nonce) ^ bytes8(msg.sender)));\n    require(commits[c] > 0 && (commits[c] + blockWait) < block.number);\n\n    //transfer funds\n    msg.sender.transfer(this.balance);\n  }\n\n  function skipBlock() external returns (uint) {\n     \n  }\n}\n",
  "sourcePath": "/Users/christophercoverdale/Desktop/Projects/solidity/contract-attacks/contracts/BlindCommitments.sol",
  "compiler": {
    "name": "solc",
    "version": "0.4.18+commit.9cf6e910.Emscripten.clang"
  },
  "schemaVersion": "1.0.1",
  "updatedAt": "2018-03-10T11:33:20.769Z"
}