{
  "contractName": "SolutionVictim",
  "abi": [
    {
      "constant": true,
      "inputs": [],
      "name": "getBalance",
      "outputs": [
        {
          "name": "",
          "type": "uint256"
        }
      ],
      "payable": false,
      "stateMutability": "view",
      "type": "function"
    },
    {
      "constant": true,
      "inputs": [
        {
          "name": "",
          "type": "address"
        }
      ],
      "name": "balances",
      "outputs": [
        {
          "name": "",
          "type": "uint256"
        }
      ],
      "payable": false,
      "stateMutability": "view",
      "type": "function"
    },
    {
      "constant": false,
      "inputs": [],
      "name": "withdraw",
      "outputs": [],
      "payable": false,
      "stateMutability": "nonpayable",
      "type": "function"
    },
    {
      "constant": false,
      "inputs": [],
      "name": "Victim",
      "outputs": [],
      "payable": false,
      "stateMutability": "nonpayable",
      "type": "function"
    },
    {
      "constant": false,
      "inputs": [],
      "name": "deposit",
      "outputs": [],
      "payable": true,
      "stateMutability": "payable",
      "type": "function"
    },
    {
      "payable": true,
      "stateMutability": "payable",
      "type": "fallback"
    },
    {
      "anonymous": false,
      "inputs": [
        {
          "indexed": false,
          "name": "_sender",
          "type": "address"
        },
        {
          "indexed": false,
          "name": "amount",
          "type": "uint256"
        }
      ],
      "name": "WithdrawEvent",
      "type": "event"
    }
  ],
  "bytecode": "0x6060604052341561000f57600080fd5b6103e28061001e6000396000f30060606040526004361061006d576000357c0100000000000000000000000000000000000000000000000000000000900463ffffffff16806312065fe0146100b257806327e235e3146100db5780633ccfd60b146101285780634d414c181461013d578063d0e30db014610152575b346000803373ffffffffffffffffffffffffffffffffffffffff1673ffffffffffffffffffffffffffffffffffffffff16815260200190815260200160002081905550005b34156100bd57600080fd5b6100c561015c565b6040518082815260200191505060405180910390f35b34156100e657600080fd5b610112600480803573ffffffffffffffffffffffffffffffffffffffff169060200190919050506101a2565b6040518082815260200191505060405180910390f35b341561013357600080fd5b61013b6101ba565b005b341561014857600080fd5b61015061036f565b005b61015a610371565b005b60008060003373ffffffffffffffffffffffffffffffffffffffff1673ffffffffffffffffffffffffffffffffffffffff16815260200190815260200160002054905090565b60006020528060005260406000206000915090505481565b7f5dba113b49cfa7c90315e8e604e6b506f7abcb909b01dcb19ec39005086e68fc336000803373ffffffffffffffffffffffffffffffffffffffff1673ffffffffffffffffffffffffffffffffffffffff16815260200190815260200160002054604051808373ffffffffffffffffffffffffffffffffffffffff1673ffffffffffffffffffffffffffffffffffffffff1681526020018281526020019250505060405180910390a160008060003373ffffffffffffffffffffffffffffffffffffffff1673ffffffffffffffffffffffffffffffffffffffff168152602001908152602001600020541115156102b057600080fd5b3373ffffffffffffffffffffffffffffffffffffffff166000803373ffffffffffffffffffffffffffffffffffffffff1673ffffffffffffffffffffffffffffffffffffffff1681526020019081526020016000205460405160006040518083038185876187965a03f192505050151561032957600080fd5b60008060003373ffffffffffffffffffffffffffffffffffffffff1673ffffffffffffffffffffffffffffffffffffffff16815260200190815260200160002081905550565b565b346000803373ffffffffffffffffffffffffffffffffffffffff1673ffffffffffffffffffffffffffffffffffffffff168152602001908152602001600020819055505600a165627a7a72305820c3309719468b515fd485f0a2c25205acb0c14fed9be8d261eb86179f81160ec00029",
  "source": "pragma solidity ^0.4.18;\n\ncontract SolutionVictim {\n  \n  mapping (address => uint) public balances;\n\n  event WithdrawEvent(address _sender, uint amount);\n\n  function Victim() {\n  }\n\n  function deposit() payable {\n    balances[msg.sender] = msg.value;\n  }\n\n  function getBalance() constant returns (uint) {\n    return balances[msg.sender];\n  }\n\n  function() payable {\n    // this.deposit();\n    balances[msg.sender] = msg.value;\n  }\n\n  function withdraw() {\n    WithdrawEvent(msg.sender, balances[msg.sender]);\n\n    require(balances[msg.sender] > 0);\n\n    if (!msg.sender.call.value(balances[msg.sender])()) {\n      revert();\n    } \n\n    balances[msg.sender] = 0;\n  }\n\n}",
  "sourcePath": "/Users/christophercoverdale/Desktop/Projects/solidity/contract-attacks/contracts/SolutionVictim.sol",
  "compiler": {
    "name": "solc",
    "version": "0.4.18+commit.9cf6e910.Emscripten.clang"
  },
  "schemaVersion": "1.0.1",
  "updatedAt": "2018-03-04T09:33:55.059Z"
}