{
  "contractName": "SolutionTransactionOrdering",
  "abi": [
    {
      "constant": false,
      "inputs": [
        {
          "name": "_price",
          "type": "uint256"
        }
      ],
      "name": "setPrice",
      "outputs": [],
      "payable": false,
      "stateMutability": "nonpayable",
      "type": "function"
    },
    {
      "constant": true,
      "inputs": [],
      "name": "getPrice",
      "outputs": [
        {
          "name": "",
          "type": "uint256"
        }
      ],
      "payable": false,
      "stateMutability": "view",
      "type": "function"
    },
    {
      "constant": false,
      "inputs": [
        {
          "name": "_txCounter",
          "type": "uint256"
        }
      ],
      "name": "buy",
      "outputs": [
        {
          "name": "",
          "type": "uint256"
        }
      ],
      "payable": false,
      "stateMutability": "nonpayable",
      "type": "function"
    },
    {
      "constant": true,
      "inputs": [],
      "name": "getTxCounter",
      "outputs": [
        {
          "name": "",
          "type": "uint256"
        }
      ],
      "payable": false,
      "stateMutability": "view",
      "type": "function"
    },
    {
      "inputs": [],
      "payable": false,
      "stateMutability": "nonpayable",
      "type": "constructor"
    },
    {
      "anonymous": false,
      "inputs": [
        {
          "indexed": false,
          "name": "_buyer",
          "type": "address"
        },
        {
          "indexed": false,
          "name": "_price",
          "type": "uint256"
        }
      ],
      "name": "Purchase",
      "type": "event"
    },
    {
      "anonymous": false,
      "inputs": [
        {
          "indexed": false,
          "name": "_owner",
          "type": "address"
        },
        {
          "indexed": false,
          "name": "_price",
          "type": "uint256"
        }
      ],
      "name": "PriceChange",
      "type": "event"
    }
  ],
  "bytecode": "0x6060604052341561000f57600080fd5b33600260006101000a81548173ffffffffffffffffffffffffffffffffffffffff021916908373ffffffffffffffffffffffffffffffffffffffff160217905550606460008190555060006001819055506102e08061006f6000396000f300606060405260043610610062576000357c0100000000000000000000000000000000000000000000000000000000900463ffffffff16806391b7f5ed1461006757806398d5fdca1461008a578063d96a094a146100b3578063f5ae7c7d146100ea575b600080fd5b341561007257600080fd5b6100886004808035906020019091905050610113565b005b341561009557600080fd5b61009d610218565b6040518082815260200191505060405180910390f35b34156100be57600080fd5b6100d46004808035906020019091905050610221565b6040518082815260200191505060405180910390f35b34156100f557600080fd5b6100fd6102aa565b6040518082815260200191505060405180910390f35b600260009054906101000a900473ffffffffffffffffffffffffffffffffffffffff1673ffffffffffffffffffffffffffffffffffffffff163373ffffffffffffffffffffffffffffffffffffffff1614151561016f57600080fd5b80600081905550600180600082825401925050819055507ffb97d390102d99a2a0210c7da4d6e15528ca897324a726106755393058ae2719600260009054906101000a900473ffffffffffffffffffffffffffffffffffffffff16600054604051808373ffffffffffffffffffffffffffffffffffffffff1673ffffffffffffffffffffffffffffffffffffffff1681526020018281526020019250505060405180910390a150565b60008054905090565b60006001548214151561023357600080fd5b7f2499a5330ab0979cc612135e7883ebc3cd5c9f7a8508f042540c34723348f63233600054604051808373ffffffffffffffffffffffffffffffffffffffff1673ffffffffffffffffffffffffffffffffffffffff1681526020018281526020019250505060405180910390a16000549050919050565b60006001549050905600a165627a7a723058201dad47a0a0dea71e4308a4951d3a8aa28e3eece572aa66c6991e8a9b3662dc540029",
  "source": "pragma solidity ^0.4.18;\n\ncontract SolutionTransactionOrdering {\n  uint256 price;\n  uint256 txCounter;\n  address owner;\n  \n  event Purchase(address _buyer, uint256 _price);\n  event PriceChange(address _owner, uint256 _price);\n  \n  modifier ownerOnly() {\n    require(msg.sender == owner);\n    _;\n  }\n  function getPrice() constant returns (uint256) {\n    return price;\n  }\n\n  function getTxCounter() constant returns (uint256) {\n    return txCounter;\n  }\n\n  function SolutionTransactionOrdering() {\n    // constructor\n    owner = msg.sender;\n    price = 100;\n    txCounter = 0;\n  }\n\n  function buy(uint256 _txCounter) returns (uint256) {\n    require(_txCounter == txCounter);\n    Purchase(msg.sender, price);\n    return price;\n  }\n\n  function setPrice(uint256 _price) ownerOnly() {\n    price = _price;\n    txCounter += 1;\n    PriceChange(owner, price);\n  }\n}\n\n",
  "sourcePath": "/Users/christophercoverdale/Desktop/Projects/solidity/contract-attacks/contracts/SolutionTransactionOrdering.sol",
  "compiler": {
    "name": "solc",
    "version": "0.4.18+commit.9cf6e910.Emscripten.clang"
  },
  "schemaVersion": "1.0.1",
  "updatedAt": "2018-03-10T11:52:39.383Z"
}