{
  "contractName": "SolutionTransactionOrdering",
  "abi": [
    {
      "constant": false,
      "inputs": [
        {
          "name": "_price",
          "type": "uint256"
        }
      ],
      "name": "setPrice",
      "outputs": [],
      "payable": false,
      "stateMutability": "nonpayable",
      "type": "function"
    },
    {
      "constant": false,
      "inputs": [
        {
          "name": "_txCounter",
          "type": "uint256"
        }
      ],
      "name": "buy",
      "outputs": [
        {
          "name": "",
          "type": "uint256"
        }
      ],
      "payable": false,
      "stateMutability": "nonpayable",
      "type": "function"
    },
    {
      "inputs": [],
      "payable": false,
      "stateMutability": "nonpayable",
      "type": "constructor"
    },
    {
      "anonymous": false,
      "inputs": [
        {
          "indexed": false,
          "name": "_buyer",
          "type": "address"
        },
        {
          "indexed": false,
          "name": "_price",
          "type": "uint256"
        }
      ],
      "name": "Purchase",
      "type": "event"
    },
    {
      "anonymous": false,
      "inputs": [
        {
          "indexed": false,
          "name": "_owner",
          "type": "address"
        },
        {
          "indexed": false,
          "name": "_price",
          "type": "uint256"
        }
      ],
      "name": "PriceChange",
      "type": "event"
    }
  ],
  "bytecode": "0x6060604052341561000f57600080fd5b33600260006101000a81548173ffffffffffffffffffffffffffffffffffffffff021916908373ffffffffffffffffffffffffffffffffffffffff160217905550606460008190555060006001819055506102658061006f6000396000f30060606040526004361061004c576000357c0100000000000000000000000000000000000000000000000000000000900463ffffffff16806391b7f5ed14610051578063d96a094a14610074575b600080fd5b341561005c57600080fd5b61007260048080359060200190919050506100ab565b005b341561007f57600080fd5b61009560048080359060200190919050506101b0565b6040518082815260200191505060405180910390f35b600260009054906101000a900473ffffffffffffffffffffffffffffffffffffffff1673ffffffffffffffffffffffffffffffffffffffff163373ffffffffffffffffffffffffffffffffffffffff1614151561010757600080fd5b80600081905550600180600082825401925050819055507ffb97d390102d99a2a0210c7da4d6e15528ca897324a726106755393058ae2719600260009054906101000a900473ffffffffffffffffffffffffffffffffffffffff16600054604051808373ffffffffffffffffffffffffffffffffffffffff1673ffffffffffffffffffffffffffffffffffffffff1681526020018281526020019250505060405180910390a150565b6000600154821415156101c257600080fd5b7f2499a5330ab0979cc612135e7883ebc3cd5c9f7a8508f042540c34723348f63233600054604051808373ffffffffffffffffffffffffffffffffffffffff1673ffffffffffffffffffffffffffffffffffffffff1681526020018281526020019250505060405180910390a160005490509190505600a165627a7a72305820338f37b7eea5a00c85b9734f800e1c965afcb995f173262c133fbf86c6c758fb0029",
  "source": "pragma solidity ^0.4.18;\n\ncontract SolutionTransactionOrdering {\n  uint256 price;\n  uint256 txCounter;\n  address owner;\n  \n  event Purchase(address _buyer, uint256 _price);\n  event PriceChange(address _owner, uint256 _price);\n  \n  modifier ownerOnly() {\n    require(msg.sender == owner);\n    _;\n  }\n\n  function SolutionTransactionOrdering() {\n    // constructor\n    owner = msg.sender;\n    price = 100;\n    txCounter = 0;\n  }\n\n  function buy(uint256 _txCounter) returns (uint256) {\n    require(_txCounter == txCounter);\n    Purchase(msg.sender, price);\n    return price;\n  }\n\n  function setPrice(uint256 _price) ownerOnly() {\n    price = _price;\n    txCounter += 1;\n    PriceChange(owner, price);\n  }\n}\n\n",
  "sourcePath": "/Users/christophercoverdale/Desktop/Projects/solidity/contract-attacks/contracts/SolutionTransactionOrdering.sol",
  "compiler": {
    "name": "solc",
    "version": "0.4.18+commit.9cf6e910.Emscripten.clang"
  },
  "schemaVersion": "1.0.1",
  "updatedAt": "2018-03-01T14:49:02.832Z"
}