{
  "contractName": "SolutionVictim",
  "abi": [
    {
      "constant": true,
      "inputs": [],
      "name": "getBalance",
      "outputs": [
        {
          "name": "",
          "type": "uint256"
        }
      ],
      "payable": false,
      "stateMutability": "view",
      "type": "function"
    },
    {
      "constant": true,
      "inputs": [
        {
          "name": "",
          "type": "address"
        }
      ],
      "name": "lockedState",
      "outputs": [
        {
          "name": "",
          "type": "bool"
        }
      ],
      "payable": false,
      "stateMutability": "view",
      "type": "function"
    },
    {
      "constant": true,
      "inputs": [
        {
          "name": "",
          "type": "address"
        }
      ],
      "name": "balances",
      "outputs": [
        {
          "name": "",
          "type": "uint256"
        }
      ],
      "payable": false,
      "stateMutability": "view",
      "type": "function"
    },
    {
      "constant": false,
      "inputs": [],
      "name": "withdraw",
      "outputs": [],
      "payable": false,
      "stateMutability": "nonpayable",
      "type": "function"
    },
    {
      "constant": false,
      "inputs": [],
      "name": "deposit",
      "outputs": [],
      "payable": true,
      "stateMutability": "payable",
      "type": "function"
    },
    {
      "inputs": [],
      "payable": false,
      "stateMutability": "nonpayable",
      "type": "constructor"
    },
    {
      "payable": true,
      "stateMutability": "payable",
      "type": "fallback"
    },
    {
      "anonymous": false,
      "inputs": [
        {
          "indexed": false,
          "name": "_sender",
          "type": "address"
        },
        {
          "indexed": false,
          "name": "amount",
          "type": "uint256"
        }
      ],
      "name": "WithdrawEvent",
      "type": "event"
    }
  ],
  "bytecode": "0x6060604052341561000f57600080fd5b6105518061001e6000396000f30060606040526004361061006d576000357c0100000000000000000000000000000000000000000000000000000000900463ffffffff16806312065fe0146100b25780631d3c31df146100db57806327e235e31461012c5780633ccfd60b14610179578063d0e30db01461018e575b346000803373ffffffffffffffffffffffffffffffffffffffff1673ffffffffffffffffffffffffffffffffffffffff16815260200190815260200160002081905550005b34156100bd57600080fd5b6100c5610198565b6040518082815260200191505060405180910390f35b34156100e657600080fd5b610112600480803573ffffffffffffffffffffffffffffffffffffffff169060200190919050506101de565b604051808215151515815260200191505060405180910390f35b341561013757600080fd5b610163600480803573ffffffffffffffffffffffffffffffffffffffff169060200190919050506101fe565b6040518082815260200191505060405180910390f35b341561018457600080fd5b61018c610216565b005b6101966104e0565b005b60008060003373ffffffffffffffffffffffffffffffffffffffff1673ffffffffffffffffffffffffffffffffffffffff16815260200190815260200160002054905090565b60016020528060005260406000206000915054906101000a900460ff1681565b60006020528060005260406000206000915090505481565b600033600160008273ffffffffffffffffffffffffffffffffffffffff1673ffffffffffffffffffffffffffffffffffffffff16815260200190815260200160002060009054906101000a900460ff1615151561027257600080fd5b60018060008373ffffffffffffffffffffffffffffffffffffffff1673ffffffffffffffffffffffffffffffffffffffff16815260200190815260200160002060006101000a81548160ff0219169083151502179055507f5dba113b49cfa7c90315e8e604e6b506f7abcb909b01dcb19ec39005086e68fc336000803373ffffffffffffffffffffffffffffffffffffffff1673ffffffffffffffffffffffffffffffffffffffff16815260200190815260200160002054604051808373ffffffffffffffffffffffffffffffffffffffff1673ffffffffffffffffffffffffffffffffffffffff1681526020018281526020019250505060405180910390a160008060003373ffffffffffffffffffffffffffffffffffffffff1673ffffffffffffffffffffffffffffffffffffffff168152602001908152602001600020541115156103bf57600080fd5b6000803373ffffffffffffffffffffffffffffffffffffffff1673ffffffffffffffffffffffffffffffffffffffff16815260200190815260200160002054915060008060003373ffffffffffffffffffffffffffffffffffffffff1673ffffffffffffffffffffffffffffffffffffffff168152602001908152602001600020819055503373ffffffffffffffffffffffffffffffffffffffff166108fc839081150290604051600060405180830381858888f19350505050151561048457600080fd5b6000600160008373ffffffffffffffffffffffffffffffffffffffff1673ffffffffffffffffffffffffffffffffffffffff16815260200190815260200160002060006101000a81548160ff0219169083151502179055505050565b346000803373ffffffffffffffffffffffffffffffffffffffff1673ffffffffffffffffffffffffffffffffffffffff168152602001908152602001600020819055505600a165627a7a72305820b144a4fa97d4789f9d4be23e2c78fc99c6b8c9879d390e2fc5f11f9e34db449c0029",
  "source": "pragma solidity ^0.4.18;\n\ncontract SolutionVictim {\n  \n  mapping(address => uint) public balances;\n\n  mapping(address => bool) public lockedState;\n\n  modifier noReentrancy(address _sender) {\n    require(!lockedState[_sender]);\n    lockedState[_sender] = true;\n    _;\n    lockedState[_sender] = false;\n  }\n\n  event WithdrawEvent(address _sender, uint amount);\n\n  function SolutionVictim() {\n  }\n\n  function deposit() payable {\n    balances[msg.sender] = msg.value;\n  }\n\n  function getBalance() constant returns (uint) {\n    return balances[msg.sender];\n  }\n\n  function() payable {\n    balances[msg.sender] = msg.value;\n  }\n\n  function withdraw() noReentrancy(msg.sender) {\n    WithdrawEvent(msg.sender, balances[msg.sender]);\n\n    require(balances[msg.sender] > 0);\n    uint valueOfBalance = balances[msg.sender];\n\n    balances[msg.sender] = 0;\n\n    if (!msg.sender.send(valueOfBalance)) {\n      revert();\n    } \n  }\n}",
  "sourcePath": "/Users/christophercoverdale/Desktop/Projects/solidity/contract-attacks/contracts/SolutionVictim.sol",
  "compiler": {
    "name": "solc",
    "version": "0.4.18+commit.9cf6e910.Emscripten.clang"
  },
  "schemaVersion": "1.0.1",
  "updatedAt": "2018-03-10T11:33:20.671Z"
}