{
  "contractName": "TransactionOrdering",
  "abi": [
    {
      "constant": false,
      "inputs": [
        {
          "name": "_price",
          "type": "uint256"
        }
      ],
      "name": "setPrice",
      "outputs": [],
      "payable": false,
      "stateMutability": "nonpayable",
      "type": "function"
    },
    {
      "constant": false,
      "inputs": [],
      "name": "buy",
      "outputs": [
        {
          "name": "",
          "type": "uint256"
        }
      ],
      "payable": false,
      "stateMutability": "nonpayable",
      "type": "function"
    },
    {
      "inputs": [],
      "payable": false,
      "stateMutability": "nonpayable",
      "type": "constructor"
    },
    {
      "anonymous": false,
      "inputs": [
        {
          "indexed": false,
          "name": "_buyer",
          "type": "address"
        },
        {
          "indexed": false,
          "name": "_price",
          "type": "uint256"
        }
      ],
      "name": "Purchase",
      "type": "event"
    },
    {
      "anonymous": false,
      "inputs": [
        {
          "indexed": false,
          "name": "_owner",
          "type": "address"
        },
        {
          "indexed": false,
          "name": "_price",
          "type": "uint256"
        }
      ],
      "name": "PriceChange",
      "type": "event"
    }
  ],
  "bytecode": "0x6060604052341561000f57600080fd5b33600160006101000a81548173ffffffffffffffffffffffffffffffffffffffff021916908373ffffffffffffffffffffffffffffffffffffffff1602179055506064600081905550610235806100676000396000f30060606040526004361061004c576000357c0100000000000000000000000000000000000000000000000000000000900463ffffffff16806391b7f5ed14610051578063a6f2ae3a14610074575b600080fd5b341561005c57600080fd5b610072600480803590602001909190505061009d565b005b341561007f57600080fd5b610087610192565b6040518082815260200191505060405180910390f35b600160009054906101000a900473ffffffffffffffffffffffffffffffffffffffff1673ffffffffffffffffffffffffffffffffffffffff163373ffffffffffffffffffffffffffffffffffffffff161415156100f957600080fd5b806000819055507ffb97d390102d99a2a0210c7da4d6e15528ca897324a726106755393058ae2719600160009054906101000a900473ffffffffffffffffffffffffffffffffffffffff16600054604051808373ffffffffffffffffffffffffffffffffffffffff1673ffffffffffffffffffffffffffffffffffffffff1681526020018281526020019250505060405180910390a150565b60007f2499a5330ab0979cc612135e7883ebc3cd5c9f7a8508f042540c34723348f63233600054604051808373ffffffffffffffffffffffffffffffffffffffff1673ffffffffffffffffffffffffffffffffffffffff1681526020018281526020019250505060405180910390a16000549050905600a165627a7a72305820dd4f672d16b3b6542aeee152af77d9d1cebe007797b91e6472748c4b89b139cf0029",
  "source": "pragma solidity ^0.4.18;\n\ncontract TransactionOrdering {\n  uint256 price;\n  address owner;\n  \n  event Purchase(address _buyer, uint256 _price);\n  event PriceChange(address _owner, uint256 _price);\n  \n  modifier ownerOnly() {\n    require(msg.sender == owner);\n    _;\n  }\n\n  function TransactionOrdering() {\n    // constructor\n    owner = msg.sender;\n    price = 100;\n  }\n\n  function buy() returns (uint256) {\n    Purchase(msg.sender, price);\n    return price;\n  }\n\n  function setPrice(uint256 _price) ownerOnly() {\n    price = _price;\n    PriceChange(owner, price);\n  }\n}\n\n",
  "sourcePath": "/Users/christophercoverdale/Desktop/Projects/solidity/contract-attacks/contracts/TransactionOrdering.sol",
  "compiler": {
    "name": "solc",
    "version": "0.4.18+commit.9cf6e910.Emscripten.clang"
  },
  "schemaVersion": "1.0.1",
  "updatedAt": "2018-03-01T14:49:02.831Z"
}